:1000000013C02DC02CC02BC02AC029C028C027C0B7
:1000100026C025C00CC123C022C021C020C01FC0E3
:100020001EC01DC01CC01BC011241FBECFEFD2E0DC
:10003000DEBFCDBF11E0A0E0B1E0E0ECF3E002C034
:1000400005900D92A234B107D9F721E0A2E4B1E006
:1000500001C01D92AE34B207E1F702D0AFC1D0CFDC
:10006000CF93DF93CDB7DEB7CF55D1090FB6F89454
:10007000DEBF0FBECDBF78942FEF80E792E0215016
:1000800080409040E1F700C0000085E484B985B16C
:10009000856085B92E9A2FEF80E792E0215080404D
:1000A0009040E1F700C0000044D088EB89831A82B9
:1000B00089EB8B83FE0134969E012F593F4F8FEFC2
:1000C0008193E217F307E1F762E480E091E03FD02B
:1000D0002FEF81E19AE7215080409040E1F700C086
:1000E000000062E0CE01019632D06DE5CE010396AC
:1000F0002ED0EECF8093B90022E0E8EBF0E09BE257
:10010000A9EBB0E0822F8A95F1F790831A9BFECF7E
:10011000822F8A95F1F790838C9186FFF3CF82E04E
:100120008A95F1F7EAEBF0E080819FEF9083209AC7
:100130000895289A2A9A229A209A8FEF8093BA00DB
:100140008AE28093B80080EF8093B9000895BF924F
:10015000CF92DF92EF92FF920F931F93CF93DF9393
:10016000EC01162F1092420198819170C92E2A9AA3
:100170002A9BFECF92E0892F8A95F1F72898892F44
:100180008A95F1F72A989A95F1F7289A01E00F2EAF
:10019000FAEBEF2EF12CF02DBB24BA94D12C0111E7
:1001A00002C0C11014C02A988881F701808380EFB3
:1001B000A1DF20988EEF9EDF80FF16C0011102C0E4
:1001C00085E001C086E08093420180E01EC0209857
:1001D00080EF90DF8883113019F4F701B08202C0FC
:1001E000F70110828EEF86DF115021960D2D11112F
:1001F000D6CF28982A9A1A9BFECF82E0982F9A95FC
:10020000F1F7289A8A95F1F781E0DF91CF911F915C
:100210000F91FF90EF90DF90CF90BF90089595B130
:100220009A7F692B880F880F682B65B908951F92F4
:100230000F920FB60F9211242F933F934F935F931A
:100240006F937F938F939F93AF93BF93EF93FF939E
:10025000809143018095809343018F3F71F5809198
:100260004C0190914D01029709F097C08091460191
:1002700090914701A0914801B0914901BC01CD0185
:10028000662797FD639577278827992780E0C7DF42
:100290008091460190914701A0914801B091490198
:1002A000880F991FAA1FBB1F809346019093470197
:1002B000A0934801B093490170C080914C01909186
:1002C0004D018230910529F12CF4009759F00197E6
:1002D00069F05CC08330910509F441C0049709F4CA
:1002E0004AC054C086B5887F86BD57C0109245016C
:1002F0001092440182E090E090934D0180934C0174
:1003000061E080E08CDFE9EBF0E080818068808351
:1003100044C0809144019091450120914A0130915F
:100320004B018217930754F084E090E090934D01C5
:1003300080934C0160E081E072DF2FC001969093C2
:1003400045018093440183E090E090934D018093B8
:100350004C01E8EBF0E08081816080831EC082E088
:1003600090E090934D0180934C01E8EBF0E08081A8
:100370008160808312C010924D0110924C0161E0A7
:1003800081E04DDF8FEF8093BA0007C010924D01DE
:1003900010924C0186B5887F86BDFF91EF91BF9189
:1003A000AF919F918F917F916F915F914F913F910D
:1003B0002F910F900FBE0F901F901895F894FFCFBC
:1003C000B8000064002001061051009000407880C1
:1003D000522E5D200303000411120000C2770700B3
:1003E00010101000060000000000530807855000A0
:1003F000808C041818600310000000000000000347
:02040000040FE7
:00000001FF
